:020000040800F2
:100000008006002089010008F9050008B7030008F0
:1000100085050008430200085B120008000000008C
:10002000000000000000000000000000690B000854
:100030004702000800000000510A0008550C0008A3
:10004000A3010008A3010008A3010008A301000800
:10005000A3010008A3010008A3010008A3010008F0
:10006000A3010008A3010008A3010008A3010008E0
:10007000A3010008A3010008A3010008A3010008D0
:10008000A3010008A3010008A3010008A3010008C0
:10009000A3010008A3010008A3010008A3010008B0
:1000A000A3010008A3010008A3010008A3010008A0
:1000B000A3010008A3010008A3010008A301000890
:1000C000A3010008A3010008A3010008A301000880
:1000D000A3010008F10F0008A30100087D1000082B
:1000E000A3010008A3010008A301000800F002F822
:1000F00000F03AF80AA090E8000C82448344AAF188
:100100000107DA4501D100F02FF8AFF2090EBAE885
:100110000F0013F0010F18BFFB1A43F0010318473B
:100120005838000078380000103A24BF78C878C1E9
:10013000FAD8520724BF30C830C144BF04680C60ED
:10014000704700000023002400250026103A28BF35
:1001500078C1FBD8520728BF30C148BF0B60704739
:100160001FB51FBD10B510BD00F031F81146FFF7E7
:10017000F7FF01F075F800F04FF803B4FFF7F2FF56
:1001800003BC00F057F800000948804709480047C1
:10019000FEE7FEE7FEE7FEE7FEE7FEE7FEE7FEE737
:1001A000FEE7FEE704480549054A064B7047000094
:1001B000590C0008ED000008800000208006002097
:1001C000800200208002002070477047704775460B
:1001D00000F02CF8AE4605006946534620F00700B3
:1001E000854618B020B5FFF7DDFFBDE820404FF091
:1001F00000064FF000074FF000084FF0000B21F011
:100200000701AC46ACE8C009ACE8C009ACE8C009DD
:10021000ACE8C0098D46704710B50446AFF30080C6
:100220002046BDE81040FFF7A8BF00000048704717
:100230002000002001491820ABBEFEE72600020086
:10024000704700BFFEE7704700B5034603E04FF478
:100250007A7000F005F8181EA3F10103F7D100BD74
:1002600000EBC001C9004FF0E02251610021916113
:100270000521116100BF4FF0E021096901F48031CF
:100280000029F8D004214FF0E022116170472DE9D8
:10029000F04102460025002600200023002400270C
:1002A00091F803C00CF00F0591F803C00CF0100C8E
:1002B000BCF1000F03D091F802C04CEA050591F89B
:1002C00000C0BCF1000F31D0146800202BE04FF0CB
:1002D000010C0CFA00F3B1F800C00CEA03069E42D0
:1002E00020D183004FF00F0C0CFA03F7BC4305FA42
:1002F00003FC4CEA040491F803C0BCF1280F06D1BA
:100300004FF0010C0CFA00FCC2F814C00AE091F89E
:1003100003C0BCF1480F05D14FF0010C0CFA00FCF2
:10032000C2F810C0401C0828D1D31460B1F800C036
:10033000BCF1FF0F34DD546800202EE000F1080C02
:100340004FF0010808FA0CF3B1F800C00CEA0306FC
:100350009E4221D183004FF00F0C0CFA03F7BC43EF
:1003600005FA03FC4CEA040491F803C0BCF1280F21
:1003700005D100F1080C08FA0CF8C2F8148091F8C5
:1003800003C0BCF1480F07D100F1080C4FF0010881
:1003900008FA0CF8C2F81080401C0828CED354602C
:1003A000BDE8F08141617047016170470AB10161A8
:1003B00000E04161704700BFFEE7000000B587B074
:1003C0000121042000F056FB0121880300F052FBBC
:1003D0000121082000F04EFB0121880400F03AFBC7
:1003E00018208DF81B004FF40070ADF818000320A2
:1003F0008DF81A0006A93D48FFF749FF48208DF8FF
:100400001B004FF48060ADF8180003208DF81A002F
:1004100006A93648FFF73BFF18208DF81B004FF464
:100420008060ADF8180003208DF81A0006A9304846
:10043000FFF72DFF48208DF81B004FF40060ADF84A
:10044000180003208DF81A0006A92948FFF71FFF9E
:100450004FF4165002900020ADF814000C20ADF8B7
:1004600012000020ADF81000ADF80E00ADF80C0041
:1004700002A9204800F080FE02A91F4800F07CFE7F
:10048000012240F225511B4800F051FE012240F2AA
:100490002551194800F04BFE4FF4A06000F0E6F83B
:1004A00025208DF8040001208DF807008DF8050047
:1004B0008DF8060001A800F0A1F827208DF80400AF
:1004C00001208DF8070002208DF8050001208DF82D
:1004D000060001A800F092F80121064800F0F1FDA5
:1004E0000121054800F0EDFD07B000BD0008014006
:1004F000000C0140003801400048004010B54FF4A6
:1005000080510248FFF750FF10BD0000000C014071
:1005100010B54FF480510248FFF744FF10BD0000B2
:10052000000C014010B54FF400510248FFF73CFFAA
:1005300010BD0000000C014010B54FF400510248FE
:10054000FFF730FF10BD0000000C014008B501218D
:10055000082000F08FFA10208DF803004FF440506F
:10056000ADF8000003208DF8020069460448FFF74B
:100570008EFE4FF440510248FFF716FF08BD000001
:10058000000C014000BFFEE708B50121042000F087
:1005900071FA10208DF803003020ADF80000032020
:1005A0008DF8020069460348FFF771FE00F0DAF9A2
:1005B00008BD00000008014010B50446002C0BDB0C
:1005C00010210C48FFF7F0FE20210A48FFF7EAFE51
:1005D000A0B200F035FA0BE020210648FFF7E4FE58
:1005E00010210448FFF7DEFE614288B200F028FACD
:1005F00010BD0000000801407047000070B50021E8
:1006000000230F22C47804B3154C246804F4E0647A
:10061000C4F5E064210AC1F10403CA40447804FA35
:1006200003F184781440214309010E4C0678A1554A
:10063000047804F01F050124AC4005786D11AD006D
:1006400005F1E025C5F8004109E0047804F01F0534
:100650000124AC40044D0678761145F8264070BD63
:100660000CED00E000E400E080E100E0024901431D
:10067000024A1160704700000000FA050CED00E02E
:1006800070B500240EE00021204600F0EAF80025B5
:1006900004E0002000F056F9681CC5B2802DF8DB9C
:1006A000601CC4B2082CEEDB70BD000008B501214F
:1006B000082000F0DFF910208DF8030003208DF8EA
:1006C00002004FF48070ADF8000069460A48FFF759
:1006D000DEFD4FF40070ADF8000069460648FFF7F4
:1006E000D6FD012211020448FFF760FE01225102EB
:1006F0000148FFF75BFE08BD000C014070B50546E0
:10070000002419E080202041284008B1012000E0A9
:10071000002002464FF400710E48FFF747FE012209
:1007200011020C48FFF742FE00224FF48071094885
:10073000FFF73CFE601CC4B2082CE3DB012211026F
:100740000448FFF733FE00224FF480710148FFF7A1
:100750002DFE70BD000C014010B5012251020A4867
:10076000FFF724FE012211020748FFF71FFE0022B7
:100770004FF400710448FFF719FE00224FF4807116
:100780000148FFF713FE10BD000C014010B5002218
:100790004FF400710648FFF709FE012211020448D8
:1007A000FFF704FE012251020148FFF7FFFD10BDD3
:1007B000000C014070B5002406E0002500E06D1C2F
:1007C000B5F57A7FFBD3641CB4F57A7FF5D3FFF7D8
:1007D0006DFFAE2000F0A6F8D52000F0A3F8802031
:1007E00000F0A0F8A82000F09DF83F2000F09AF853
:1007F000D32000F097F8002000F094F8402000F09B
:1008000091F8A12000F08EF8C82000F08BF8DA20D3
:1008100000F088F8122000F085F8812000F082F8BE
:10082000CF2000F07FF8D92000F07CF8F12000F014
:1008300079F8DB2000F076F8302000F073F8A4207F
:1008400000F070F8A62000F06DF88D2000F06AF836
:10085000142000F067F8AF2000F064F8FFF710FFF5
:1008600070BD70B505460C46A01CC4B245F0B00082
:1008700000F058F8102141EA141000F053F804F089
:100880000F0000F04FF870BD2DE9F04105460E460F
:100890001746721ED206110E6A1E5206100EFFF780
:1008A000E0FF002409E0A7F12001134A02EB011147
:1008B000085D00F047F8601CC4B2082CF3DB721E20
:1008C000D206110E6A1E012303EB4202D0B2FFF7DB
:1008D000C8FF00240BE0A7F12001074A02EB011238
:1008E00004F10801505C00F02DF8601CC4B2082C23
:1008F000F1DBBDE8F0810000301400082DE9F04183
:1009000007460E461546002407E02A5D3019C1B29D
:100910003846FFF7B9FF601CC4B2285D0028F4D147
:10092000BDE8F08110B50446FFF716FF7820FFF709
:10093000E5FE0020FFF7E2FE2046FFF7DFFEFFF7AF
:1009400025FF10BD10B50446FFF706FF7820FFF71E
:10095000D5FE4020FFF7D2FE2046FFF7CFFEFFF77F
:1009600015FF10BD00B589B00121084600F072F8EE
:100970000121022000F06EF80121042000F07AF835
:1009800018208DF823004F20ADF8200003208DF8AB
:10099000220008A92848FFF77AFC4FF0804000F0B9
:1009A00097F9264800F094F90020ADF81A00ADF848
:1009B00016006320ADF818002320ADF814000020C5
:1009C0008DF81C0005A94FF0804000F0BFFA05A982
:1009D0001A4800F0BBFA01A800F0ACFA6020ADF8AC
:1009E00004000020ADF80C000120ADF80600002046
:1009F000ADF80A0001A94FF0804000F06FF901A99D
:100A00004FF0804000F0B6F901A94FF0804000F0AF
:100A100003FA01A94FF0804000F04EFA01A90748FF
:100A200000F05CF90121880700F046F90121034834
:100A300000F042F909B000BD000801400004004088
:100A400010B5044621464FF0804000F07DFA10BDFD
:100A50007047000029B1064AD2690243044BDA61AB
:100A600004E0034AD2698243014BDA617047000017
:100A70000010024029B1064A92690243044B9A6170
:100A800004E0034A92698243014B9A617047000077
:100A90000010024030B500210022002400232D4D1B
:100AA0006D6805F00C0121B1042905D0082923D176
:100AB00005E0294D056022E0274D05601FE0254D2A
:100AC0006D6805F47012234D6D6805F480340225BD
:100AD00005EB92421CB9214D554305600BE01D4DBD
:100AE0006D6805F400351DB11C4D5543056002E0ED
:100AF000194D5543056002E0174D056000BF00BF6A
:100B0000144D6D6805F0F0010909154D6B5C056821
:100B1000DD4045600F4D6D6805F4E061090A104D38
:100B20006B5C4568DD4085600A4D6D6805F4605179
:100B3000C90A0B4D6B5C4568DD40C560054D6D68AD
:100B400005F44041890B074D6B5CC568B5FBF3F5B7
:100B5000056130BD0010024000127A0000093D001E
:100B60000000002010000020704710B500F002F8CF
:100B700010BD00000CB500200190009033480068C3
:100B800040F480303149086000BF3048006800F40C
:100B9000003000900198401C0190009818B901980D
:100BA000B0F5A06FF1D12948006800F4003010B111
:100BB0000120009001E0002000900098012843D11E
:100BC0002348006840F0100021490860084600688A
:100BD00020F0030008600846006840F0020008604A
:100BE0001A48406819494860084640684860084605
:100BF000406840F4806048600846406820F47C10FB
:100C000048600846406840F4E810486008460068BC
:100C100040F08070086000BF0C48006800F0007071
:100C20000028F9D00948406820F0030007494860CF
:100C30000846406840F00200486000BF0348406832
:100C400000F00C000828F9D10CBD00000010024093
:100C5000002002407047000010B51348006840F0C3
:100C600001001149086008464068104908400E49D3
:100C70004860084600680E4908400B49086008466D
:100C8000006820F4802008600846406820F4FE00D8
:100C900048604FF41F008860FFF767FF4FF0006067
:100CA0000449086010BD0000001002400000FFF879
:100CB000FFFFF6FE08ED00E021B1028842F00102DC
:100CC000028004E002884FF6FE731A4002807047EB
:100CD00001894FF6F87211400181704770B5002408
:100CE00000220023058C4FF6FE7635400584028CE9
:100CF0008388048B4FF68F752C40B51E2C400D88D1
:100D00002C43751E2A400D892A434D882A43144DD1
:100D1000A8420BD0134DA84208D0134DA84205D0CD
:100D2000124DA84202D0124DA84213D14FF6F775CA
:100D30002A404D892A434FF6FB752A408D882A4365
:100D40004FF6FF652B404FF6FF552B408D892B4307
:100D5000CD892B4383800483CD888586028470BD32
:100D6000002C01400034014000400140004401409B
:100D70000048014070B5002400220023058C4FF686
:100D8000EF7635400584028C8388048B48F6FF7526
:100D90002C404FF6FF452C400D884FF6FF7606EAB3
:100DA00005252C434FF6DF752A400D8906EA051507
:100DB0002A434D8806EA05152A43154DA84202D05C
:100DC000144DA8421DD14FF67F752A404D894FF62C
:100DD000FF7606EA05152A434FF6BF752A408D882F
:100DE00006EA05152A434FF6FF352B404FF2FF75F3
:100DF0002B408D8906EA85052B43CD8906EA8505BA
:100E00002B4383800483CD880587028470BD000056
:100E1000002C01400034014070B500240022002362
:100E2000058C4FF6FF6635400584028C8388848BE1
:100E30004FF68F752C404FF6FC752C400D882C43D7
:100E40004FF6FF552A400D894FF6FF7606EA052535
:100E50002A434D8806EA05252A43154DA84202D0AB
:100E6000144DA8421DD14FF2FF752A404D894FF60F
:100E7000FF7606EA05252A434FF6FF352A408D887E
:100E800006EA05252A434EF6FF752B404DF6FF7501
:100E90002B408D8906EA05152B43CD8906EA0515F9
:100EA0002B4383808483CD888587028470BD0000B6
:100EB000002C01400034014070B5002200230024C2
:100EC000058C4EF6FF7635400584038C8488828B32
:100ED00048F6FF752A404FF6FF452A400D884FF629
:100EE000FF7606EA05252A434DF6FF752B400D894E
:100EF00006EA05352B434D8806EA05352B430B4D95
:100F0000A84202D00A4DA84208D14BF6FF752C40EA
:100F10008D894FF6FF7606EA85152C4384808283FF
:100F2000CD88A0F84050038470BD0000002C014023
:100F3000003401400021018041808180C180018115
:100F400041818181C1817047818770470022028879
:100F50001D4B98420ED01D4B98420BD0B0F1804FE4
:100F600008D01B4B984205D01A4B984202D01A4B1E
:100F7000984204D14FF68F731A404B881A43174B8F
:100F8000984207D0164B984204D04FF6FF431A40C0
:100F9000CB881A4302808B8883850B8803850A4B94
:100FA00098420BD0094B984208D00E4B984205D07E
:100FB0000D4B984202D00D4B984201D10B7A03861B
:100FC0000123838270470000002C0140003401405F
:100FD0000004004000080040000C004000100040E9
:100FE000001400400040014000440140004801401E
:100FF00010B540F225511F4800F06FF8012838D194
:101000001C4800F025F9012806D1FFF781FAFFF707
:1010100093FA012018490880164800F019F90228AF
:1010200006D1FFF76BFAFFF77DFA0220124908801C
:10103000104800F00DF9032801D10F4908800D4830
:1010400000F006F9042801D10B490880094800F096
:10105000FFF8052801D108490880064800F0F8F893
:10106000062801D10449088040F22551014800F0CA
:1010700019F810BD003801401E00002010B540F2E4
:101080002551074800F029F8012807D1044800F04D
:10109000DFF840F22551024800F004F810BD0000CE
:1010A0000048004010B50022002340F66A14A14217
:1010B00000D100BF0A1201249440A3B2DC43048093
:1010C00010BD21B1828942F40052828104E08289FC
:1010D0004DF6FF731A408281704770B502460024B6
:1010E00000230025002040F66A16B14200D100BF5F
:1010F000C1F3421501F01F03012606FA03F3012D87
:1011000002D19689334006E0022D02D1168A33407F
:1011100001E0968A33400C12012606FA04F4168880
:10112000344013B10CB1012000E0002070BDF0B5D7
:101130000346002400260025002040F66A17B94225
:1011400000D100BF1846C1F3421401F01F06012769
:1011500007FA06F5012C01D10C3004E0022C01D174
:10116000103000E014301AB107682F43076002E026
:101170000768AF430760F0BD2DE9F04786B005462C
:101180000E460024A24600BFA1460027B08900B148
:1011900000BF2F462C8A4CF6FF700440F0880443B1
:1011A0002C82AC894EF6F3100440B0883189084394
:1011B000718908430443AC81AC8A4FF6FF40044078
:1011C000B0890443AC8201A8FFF764FC1F48874242
:1011D00002D1DDF810A001E0DDF80CA0A88900F430
:1011E000004040B10AEBCA0000EB0A103168490028
:1011F000B0FBF1F807E00AEBCA0000EB0A10316817
:101200008900B0FBF1F86420B8FBF0F0040120097C
:10121000642101FB1089A88900F4004040B132200C
:1012200000EBC900B0FBF1F000F00700044308E058
:10123000322000EB09106421B0FBF1F000F00F0048
:1012400004432C8106B0BDE8F0870000003801405F
:1012500001468888C0F30800704700BFFEE7000021
:10126000FFF7ACF8FFF7A6FAFFF770F9FFF78CF974
:101270008BE046480088012817D145A20121084685
:10128000FFF73CFB42A201210220FFF737FB44A2FB
:1012900001210846FFF732FB44A201210220FFF79B
:1012A0002DFB4FF4FA60FEF7CFFF38480088022884
:1012B00017D137A201210846FFF720FB34A20121F4
:1012C0000220FFF71BFB3CA201210846FFF716FB9B
:1012D0003CA201210220FFF711FB4FF4FA60FEF758
:1012E000B3FF2A480088032810D11E20FFF764F9B5
:1012F00037A201210320FFF701FB3AA201210320BD
:10130000FFF7FCFA4FF47A70FEF79EFF1F48008843
:10131000042810D13C20FFF74FF92DA20121032012
:10132000FFF7ECFA34A201210320FFF7E7FA4FF4AC
:101330007A70FEF789FF15480088052810D15A20D9
:10134000FFF73AF922A201210320FFF7D7FA2FA2D3
:1013500001210320FFF7D2FA4FF47A70FEF774FFF1
:101360000A480088062810D10020FFF725F918A2A6
:1013700001210320FFF7C2FA29A201210320FFF770
:10138000BDFA4FF47A70FEF75FFF72E71E0000208F
:10139000202020202020202020202020202020006D
:1013A0004F70656E204C4544313200004F70656EC1
:1013B000204C454431330000636C6F7365204C450D
:1013C00044313200636C6F7365204C454431330007
:1013D000202020202020202020202020202020200D
:1013E000202000004F70656E206169722066616E7A
:1013F000206F6E65000000004F70656E206169729D
:101400002066616E20746F77000000004F70656E7B
:10141000206169722066616E2074687265650000E3
:10142000636C6F7365206169722066616E200000D5
:1014300000000000000000000000000000000000AC
:10144000000000F800000000000000333000000041
:1014500000160E00160E0000000000000000000044
:1014600040C07840C0784000043F04043F040400BA
:10147000007088FC08300000001820FF211E0000CA
:10148000F008F000E018000000211C031E211E00DF
:1014900000F00888700000001E2123241927211065
:1014A000000000160E000000000000000000000018
:1014B000000000E0180402000000000718204000AF
:1014C00000020418E000000000402018070000009F
:1014D000404080F0804040000202010F0102020003
:1014E000000000F0000000000101011F01010100E7
:1014F000000000000000000000B0700000000000CC
:1015000000000000000000000001010101010101D4
:10151000000000000000000000303000000000006B
:101520000000000080601804006018060100000040
:1015300000E010080810E000000F102020100F003D
:10154000001010F8000000000020203F20200000C4
:10155000007008080888700000302824222130001C
:1015600000300888884830000018202020110E0024
:101570000000C02010F8000000070424243F2400CD
:1015800000F80888880808000019212020110E00A2
:1015900000E0108888180000000F112020110E00B4
:1015A00000380808C83808000000003F00000000AC
:1015B0000070880808887000001C222121221C006D
:1015C00000E010080810E0000000312222110F0096
:1015D000000000C0C000000000000030300000002B
:1015E000000000C0C0000000000080B070000000DB
:1015F00000008040201008000001020408102000B4
:1016000040404040404040000404040404040400FE
:101610000008102040800000002010080402010093
:10162000007048080808F000000000303601000093
:10163000C030C828E810E0000718272423140B0046
:101640000000C038E0000000203C230202273820C0
:1016500008F8888888700000203F202020110E00A4
:10166000C03008080808380007182020201008009B
:1016700008F808080810E000203F202020100F0084
:1016800008F88888E8081000203F20202320180050
:1016900008F88888E8081000203F200003000000B8
:1016A000C03008080838000007182020221E020059
:1016B00008F808000008F808203F210101213F2018
:1016C000000808F8080800000020203F2020000043
:1016D00000000808F8080800C08080807F00000033
:1016E00008F888C028180800203F2001263820006C
:1016F00008F8080000000000203F202020203000D3
:1017000008F8F800F8F80800203F003F003F2000EC
:1017100008F830C00008F808203F200007183F00F4
:10172000E01008080810E0000F10202020100F0023
:1017300008F808080808F000203F21010101000016
:10174000E01008080810E0000F18242438504F005B
:1017500008F8888888887000203F2000030C30201B
:1017600000708808080838000038202121221C0059
:10177000180808F8080818000000203F20000000A2
:1017800008F808000008F808001F202020201F008B
:101790000878880000C83808000007380E010000EB
:1017A000F80800F80008F800033C0700073C0300B5
:1017B000081868808068180820302C03032C30201B
:1017C0000838C800C83808000000203F200000008A
:1017D00010080808C83808002038262120201800E2
:1017E000000000FE020202000000007F40404000B6
:1017F000000C30C000000000000000010638C000EE
:1018000000020202FE000000004040407F00000095
:101810000020100804081020000000000000000054
:1018200000000000000000008080808080808080B8
:10183000000204080000000000000000000000009A
:1018400000008080808000000019242222223F2096
:1018500008F8008080000000003F112020110E00D9
:101860000000008080800000000E11202020110068
:10187000000000808088F800000E112020103F201A
:101880000000808080800000001F2222222213009E
:10189000008080F0888888180020203F20200000E9
:1018A0000000808080808000006B9494949360009E
:1018B00008F8008080800000203F210000203F20A9
:1018C00000809898000000000020203F20200000A9
:1018D000000000809898000000C08080807F000099
:1018E00008F8000080808000203F24022D30200076
:1018F000000808F8000000000020203F2020000021
:101900008080808080808000203F20003F20003F3A
:10191000008080008080000000203F2100203F20C8
:101920000000808080800000001F202020201F00F9
:10193000808000808000000080FFA12020110E0028
:101940000000008080808000000E112020A0FF8019
:10195000808080008080800020203F2120000100C6
:10196000000080808080800000332424242419001B
:10197000008080E0808000000000001F2020000028
:101980008080000000808000001F202020103F2069
:10199000808080000080808000010E3008060100F9
:1019A00080800080008080800F300C030C300F009E
:1019B00000808000808080000020312E0E312000C9
:1019C000808080000080808080818E7018060100F9
:1019D00000808080808080000021302C2221300017
:1019E00000000000807C020200000000003F404038
:1019F00000000000FF00000000000000FF000000E9
:101A00000002027C800000000040403F0000000017
:101A100000804040800000800000000000010100C4
:101A20000000000000000000002F00000000070080
:101A3000070000147F147F1400242A7F2A12002339
:101A40001308646200364955225000000007000068
:101A500000001C224100000041221C000014083E2E
:101A600008140008083E0808000000A060000008F4
:101A70000808080800006060000000201008040248
:101A8000003E5149453E0000427F40000042615106
:101A90004946002141454B31001814127F100027A0
:101AA00045454539003C4A49493000017109050363
:101AB00000364949493600064949291E0000363694
:101AC00000000000563600000008142241000014F7
:101AD00014141414000041221408000201510906D4
:101AE000003E4955592E007C1211127C007F494955
:101AF0004936003E41414122007F4141221C007F86
:101B000049494941007F09090901003E4149497A93
:101B1000007F0808087F0000417F4100002040410D
:101B20003F01007F08142241007F40404040007F79
:101B3000020C027F007F0408107F003E4141413EBD
:101B4000007F09090906003E4151215E007F091905
:101B500029460046494949310001017F0101003F02
:101B60004040403F001F2040201F003F4038403F82
:101B700000631408146300070870080700615149E6
:101B8000454300007F41410000020408102000008E
:101B900041417F00000402010204004040404040F7
:101BA000000001020400002054545478007F48448F
:101BB000443800384444442000384444487F0038C6
:101BC0005454541800087E0901020018A4A4A47CEF
:101BD000007F080404780000447D400000408084B9
:101BE0007D00007F102844000000417F4000007C01
:101BF00004180478007C080404780038444444380D
:101C000000FC242424180018242418FC007C080458
:101C1000040800485454542000043F444020003C31
:101C20004040207C001C2040201C003C4030403CB8
:101C3000004428102844001CA0A0A07C0044645448
:101C40004C440000087F41000000007F00000000BD
:101C5000417F0800000804081008EFBC8C00000059
:101C60000000000000000000000000000000000074
:101C70005838000000000000000000000000E38071
:101C800082000000000000000000000000000000D2
:101C900000000000182424180000000000000000CC
:101CA0000000E4BDA000008060F8074020180F0885
:101CB000C80808281800010000FF00100C0340802D
:101CC0007F0001061800E5A5BD001010F01F10F000
:101CD00000808282E2928A86800040221508166186
:101CE000000040807F0000000000E4B89600202043
:101CF00020FE2020FF202020FF20202020000000A8
:101D0000007F404047444444474040400000E7953E
:101D10008C00000000FE929292FE929292FE0000D1
:101D2000000008080484621E010001FE0204040889
:101D3000080000000000FF010101310909090989BB
:101D40007101010101FFFF80808080808096818089
:101D50008080808080FFFF01818181FD8991A1C108
:101D6000FD81818101FFFF808080809F8884828146
:101D70009F80808080FF00000000000000000000C5
:101D80000000000000000000000000000000000053
:101D90000000000000000000000000000000000043
:101DA0000000000000000000000000000000000033
:101DB0000000000000000000000000000000000023
:101DC0000000000000000000000000000000000013
:101DD0000000000000000000000000000000000003
:101DE00000000000000000000000000000000000F3
:101DF00000000000000000000000000000000000E3
:101E000000000000000000000000000000000000D2
:101E100000000000000000000000000000000000C2
:101E200000000000000000000000000000000000B2
:101E300000000000000000000000000000000000A2
:101E40000000000000000000000000000000000092
:101E50000000000000000000000000000000000082
:101E60000000000000000000000000000000000072
:101E70000000000000000000000000000000000062
:101E80000000000000000000000000000000000052
:101E90000000000000000000000000000000000042
:101EA00000000000808080808080800000000000B2
:101EB0000000000000000000000000000000000022
:101EC0000000000000000000000000000000000012
:101ED0000000000000000000000000000000000002
:101EE00000000000000000000000000000000000F2
:101EF00000000000000000000000000000000000E2
:101F000000000000000000000000000000000000D1
:101F100000000000000000000000000086C6C6C7E8
:101F2000C7E3E3E3E3E3E1E1E3E7C7C787060000D4
:101F300000000000000000000000000000000000A1
:101F4000000000000010181C1C1E0E06078783836B
:101F50008707070706060E1E1C1C1C180000000041
:101F60000000000000000000000000000000000071
:101F70000000000000000000000000000000000061
:101F80000000000000000000000000000000000051
:101F900000000000000000000000000F0F1F1F3FA6
:101FA0003F383830303038383D3F1F1F1F0F00009A
:101FB0000000000000000000000000000000000021
:101FC0000000000000083C7E7EFEFFEFC7C3C3C3D5
:101FD000C3C3E7FFFFFF7E7E3C1800000000000047
:101FE00000000000000000000000000000000000F1
:101FF00000000000000000000000000000000000E1
:102000000000103838387C7C7C7C7C7C6C6C6C6C80
:102010006C6C6C6C6C6C7C7C7C78383830000000AC
:10202000000000000000000000C0C0C0C0C00000F0
:1020300000000000008080808000000000000000A0
:10204000C0C0C0C08000000000000000010101010C
:10205000010100008080C0C0C0C0C0C0C0C0C0C0FE
:10206000C0C0C0C0C0808080000000000000000030
:102070000000000000000000000000000000000060
:102080000000000000000000000000000000000050
:102090000000000000000000000000000000000040
:1020A000000000000000000000070F1F1F1F1C1889
:1020B0001818181C1F0F0F1F1F3E383838383838B3
:1020C000393F1F1F0F0F0400000000000000000038
:1020D00000000307070707070706060E0E0E0E0E81
:1020E0000E0E0E0F0F07070703030000000000008D
:1020F00000000000000000000000000000000000E0
:1021000000000000000000000000000000000000CF
:1021100000000000000000000000000000000000BF
:1021200000000000000000000000000000000000AF
:10213000000000000000000000000000000000009F
:10214000000000000000000000000000000000008F
:10215000000000000000000000000000000000007F
:10216000000000000000000000000000000000006F
:10217000000000000000000000000000000000005F
:10218000000000000000000000000000000000004F
:10219000000000000000000000000000000000003F
:1021A000000000000000000000000000000000002F
:1021B000000000000000000000000000000000001F
:1021C000000000000000000000000000000000000F
:1021D00000000000000000000000000000000000FF
:1021E00000000000000000000000000000000000EF
:1021F00000000000000000000000000000000000DF
:1022000000000000000000000000000000000000CE
:1022100000000080C0E0F0F8F8FCFCFCFCFCFCF8DE
:10222000F0F0E0800000000000000000000000006E
:10223000000000000000000000000000000000009E
:102240000000000000000080C0E0F0F8F8FCFCFC9A
:10225000FCFCF8F8F0F0E080000000000000000056
:10226000000000000000000000000000000000006E
:10227000000000000000000000000000000000005E
:10228000000000000000000000000000000000004E
:10229000C0F8FEFFFFFFFFFFFFFFFFFFFFFFFFFF95
:1022A000FFFFFFFFFFFCF0800000000000000000C7
:1022B000000000000000000000000000000000001E
:1022C00000000000C0F8FEFFFFFFFFFFFFFFFFFF61
:1022D000FFFFFFFFFFFFFFFFFFFCF080000000009B
:1022E00000000000000000000000000000000000EE
:1022F00000000000000000000000000000000000DE
:10230000000000000000000000000000000000FCD1
:10231000FFFFFFFFFFFFFFFFFFFFFFFFFFFFFFFFCD
:10232000FFFFFFFFFFFFFFFF0000000000000000B5
:10233000000000000000000000000000000000009D
:10234000000000FCFFFFFFFFFFFFFFFFFFFFFFFF9D
:10235000FFFFFFFFFFFFFFFFFFFFFFFF0000000089
:10236000000000000000000000000000000000006D
:10237000000000000000000000000000000000005D
:102380000000000000000000000000000000003F0E
:10239000FFFFFFFFFFFFFFFFFFFFFFFFFFFFFFFF4D
:1023A000FFFFFFFFFFFFFFFF000000000000000035
:1023B000000000000000000000000000000000001D
:1023C0000000003FFFFFFFFFFFFFFFFFFFFFFFFFDA
:1023D000FFFFFFFFFFFFFFFFFFFFFFFF0000000009
:1023E00000000000000000000000000000000000ED
:1023F00000000000000000000000000000000000DD
:1024000000000000000000000000000000000000CC
:10241000031F7FFFFFFFFFFFFFFFFFFFFFFFFFFF28
:10242000FFFFFFFFFF3F0F01000000000000000062
:10243000000000000000000000000000000000009C
:1024400000000000031F7FFFFFFFFFFFFFFFFFFFF4
:10245000FFFFFFFFFFFFFFFFFF3F0F010000000036
:10246000000000000000000000000000000000006C
:10247000000000000000000000000000000000005C
:10248000000000000000000000000000000000004C
:102490000000000103070F1F1F3F3F3F3F3F3F1F4B
:1024A0001F0F0703000000000000000000000000F4
:1024B000000000000000000000000000000000001C
:1024C000000000000000000103070F1F1F3F3F3FF7
:1024D0003F3F3F1F1F0F07030000000000000000E8
:1024E00000000000000000000000000000000000EC
:1024F00000000000000000000000000000000000DC
:1025000000000000000000000000000000000000CB
:1025100000000000000000000000000000000000BB
:1025200000000000000000000000000000000000AB
:10253000000000000000000000000000000000009B
:10254000000000000000000000000000000000008B
:10255000000000000000000000000000000000007B
:10256000000000000000000000000000000000006B
:10257000000000000000000000000000000000005B
:10258000000000000000000000000000000000004B
:10259000000000000000000000000000000000003B
:1025A000000000000000000000000000000000002B
:1025B000000000000000000000000000000000001B
:1025C000000000000000000000000000000000000B
:1025D00000000000000000000000000000000000FB
:1025E00000000000000000000000000000000000EB
:1025F000000000000000000000000000000030703B
:10260000F0F0F0E0E0E0C0C080808000000000005A
:1026100000000000000000000000000000000000BA
:1026200000000000000000000000000000000000AA
:10263000000000000000000000000000000000009A
:10264000000000000000000000000000000000008A
:1026500000000000000000000000000000000080FA
:102660008080C0C0E0E0F0F0707878783000000042
:10267000000000000000000000000000000000005A
:102680000000000001010303030707070F0E1E1ED1
:102690001C3C3C787878F0F0E0E0E0C0C0C080807E
:1026A000000000000000000000000000000000002A
:1026B000000000000000000000000000000000001A
:1026C000000000000000000000000000000000C04A
:1026D000E0E0F0F0F0F8F8F83C1C1E1E0F0F0707C2
:1026E00007070301010101000000000000000000D5
:1026F00000000000000000000000000000000000DA
:1027000000008080C0C0C0C0E0E0E0E0F070707801
:102710007838383C3C1C1C1E1F1F0F0F0F0F07077B
:1027200003000000000000000000000000000000A6
:102730000000000000000000000000000000000099
:102740000000000000000000000000000000000089
:10275000010303030707070F0F0F0F1E1E1E3C3C4C
:102760003C787878F0F0F0E0E0E0E0C08000000035
:102770000000000000000000000000000000000059
:102780008081030303F36101010180E03000000058
:1027900080C0C00000000000000000000000000039
:1027A00000000000000000000000103878F8F8F881
:1027B0007838383838383838383838383838387819
:1027C000F8F8783830000000000000000000000039
:1027D000000000000000000000C0E0000080F030B9
:1027E00000000080F07000000101E1C10000000065
:1027F00000000000000000000000000000000007D2
:102800000F0100103F0F0000007C1F030000603C20
:102810000F030000000000000000000000000000A6
:1028200000000000000000000000000000000F3F5A
:10283000FCF0C0C0C0C0C0C0C0C0C0C0C0C0E0FCD0
:102840007F0F0000000000000000000000000000FA
:10285000000000000000000000070300003F070028
:1028600000003C1F000000103C1F010000000000A1
:102870000000000000000000000000000000000058
:102880000000000000000000000000000000000048
:102890000000000000000000000000000000000038
:1028A0000000000000000000000000000000000028
:1028B0000000000000000000000000000000000018
:1028C0000000000000000000000000000000000008
:1028D00000000000000000000000000000000000F8
:1028E00000000000000000000000000000000000E8
:1028F00000000000000000000000000000000000D8
:1029000000000000000000000000000000000000C7
:1029100000000000000000000000000000000000B7
:1029200000000000000000000000000000000000A7
:102930000000000000000000000000000000000097
:102940000000000000000000000000000000000087
:102950000000000000000000000000000000000077
:102960000000000000000000000000000000000067
:102970000000000000000000000000000000000057
:102980000000000000000000000000000000000047
:102990000000000000000000000000000000000037
:1029A0000000000000000000000000000000000027
:1029B0000000000000000000000000000000000017
:1029C0000000000000000000000000000000000007
:1029D00000000000000000000000000000000000F7
:1029E00000000000000000000000000000000000E7
:1029F00000000000000000000000000000C0F838E7
:102A0000383060E0C08000000000000000000000DE
:102A100000000000000000000000000000000000B6
:102A200000000000000000000000000000000000A6
:102A30000000000000000000000000000000000096
:102A40000000000000000000000000000000000086
:102A50000000000000000000000000000000000076
:102A60000000000080C0E07030387CF08000000082
:102A7000000000000000000000000000FCFF8700D4
:102A8000000000000103070E0C183870E0C0800041
:102A90000000000000000000000000000000000036
:102AA0000000000000000000000000000000000026
:102AB0000000000000000000000000000000000016
:102AC0000000000000000000000000000000000006
:102AD000000000000000000000000080C0E070382E
:102AE0001C0E060703010000000000FFFF3000007D
:102AF00000000000000000000000000000071F3C74
:102B000070E0C080800000000000000000010103B0
:102B1000070E1C387060C0C080000000000000007C
:102B200000000000000000000000000000000000A5
:102B300000000000000080C0C00000000000000095
:102B40000000000000000000000000000000000085
:102B50000080C0E06030381C0E0703010000000058
:102B6000000000008080C0C060381C0F030000001F
:102B70000000000000000000000000000000000055
:102B800000000001018303070606068C8C0C0C0C68
:102B900018181818181818191B1F1E1C18100000D8
:102BA0000000000000000000000000FEFE0E1C38C7
:102BB000706070180E0703010103061C3830381CC2
:102BC0000EFFFF00000000000000000018181C1E8F
:102BD0001F1B191818181898980C0C0C0C0C8C0644
:102BE000060607030381010000000000000000004A
:102BF00000000000000000000000000000000000D5
:102C0000000000101E070000C0701C030000000040
:102C100000F03E0000000000000000000000000086
:102C20000000000000000000000000FFFF80000026
:102C30000000000000000000000000000000000094
:102C400080FFFF0000000000000000000000000006
:102C50000000000000180E0300000000380F010003
:102C6000000000003F030000000000000000000022
:102C70000000000000000000000000000000000054
:102C80000000000000000000000000000000000044
:102C90000000000000000000000000000000000034
:102CA0000000000000000000000000000303030318
:102CB00003030303030303030303030303030303E4
:102CC00003030100000000000000000000000000FD
:102CD00000000000000000000000000000000000F4
:102CE00000000000000000000000000000000000E4
:102CF00000000000000000000000000000000000D4
:102D000000000000000000000000000000000000C3
:102D100000000000000000000000000000000000B3
:102D200000000000000000000000000000000000A3
:102D30000000000000000000000000000000000093
:102D40000000000000000000000000000000000083
:102D50000000000000000000000000000000000073
:102D60000000000000000000000000000000000063
:102D70000000000000000000000000000000000053
:102D80000000000000000000000000000000000043
:102D90000000000000000000000000000000000033
:102DA0000000000000000000000000000000000023
:102DB0000000000000000000000000000000000013
:102DC0000000000000000000000000000000000003
:102DD00000000000000000000000000000000000F3
:102DE00000000000000000000000000000000000E3
:102DF00000000000000000000000000000000000D3
:102E000000000000000000000000000000000000C2
:102E100000000000000000000000000000000000B2
:102E200000000000000000000000000000000000A2
:102E30000000000000000000000000000000000092
:102E40000000000000000000000000000000000082
:102E50000000000000000000000000000000000072
:102E60000000000000000000000000000000000062
:102E700000000000000000000000000000808080D2
:102E8000C0C0C0C0C0C0C0C0C0C0C0C0C0C0E0E002
:102E9000E0E0E0E0E0E0E0E0E0E0E0E0F0F0F0F0F2
:102EA0002000000000000000000000000000000002
:102EB0000000000000000000000000000000000012
:102EC000000000000000000008181858F8F8F8F892
:102ED000F8F8F8F8F8F8F8F8F8F8F8F8F8F8F8F872
:102EE000F8F8F8F8F0F0F0F0F0F0F0F0F0F0F0F0C2
:102EF000F00000000000000000000080F3F3FBFB86
:102F0000FBFBFBFFFFFFFFFFFFFFFFFFFFFFFFFFDD
:102F1000FFFF7D7D7D3D3D3D3D3D3D1D1F1F1F1F35
:102F20001E0E0E0C0C00000000000000000000004F
:102F30000000000000000000000000000000000091
:102F4000000000000000000000003C7EFFFFFFFFCB
:102F5000FFFFFFFFFFFFFFFFFFFFFFFFFFFFFFFF81
:102F6000FFFFFFFDFDF9F9F9F9F9F9F9F1F1F17058
:102F70003000000000000000000000010100113FCF
:102F80003F3F1F1F1F1F1F1F1F1F0F0F0F0F0F0F71
:102F90000F0F0F0F070707070707070707070303A9
:102FA0000303030000000000808080808080808018
:102FB0008080808080808080808080808080808011
:102FC0008080808000000000000000000000000001
:102FD00000000000000000000000000000000000F1
:102FE00000000000000000000000000000000000E1
:102FF00000000000000000000000000000000000D1
:1030000000000000000000000000000000000000C0
:1030100000000000000000000000000000000000B0
:103020000000000000000000FFFF010000000000A1
:103030000000000000000000000000000000000090
:10304000000081FFFF000000000000000000000001
:103050000000000000000000000000000000000070
:103060000000000000000000000000000000000060
:103070000000000000000000000000000000000050
:103080000000000000000000000000000000000040
:103090000000000000000000000000000000000030
:1030A0000000000000000000010101010101010118
:1030B000010101010101010101010101FFFF000006
:1030C0000003FF01000000000000000000000000FD
:1030D00000000000000000000000000000000000F0
:1030E00000000000000000000000000000000000E0
:1030F00000000000000000000000000000000000D0
:1031000000000000000000000000000000000000BF
:1031100000000000000000000000000000000000AF
:10312000000000000000000000000000000000009F
:103130000000000000000000000000000003030683
:103140000203010000000000000000000000000079
:10315000000000000000000000000000000000006F
:10316000000000000000000000000000000000005F
:10317000000000000000000000000000000000004F
:10318000000000000000000000000000000000003F
:10319000000000000000000000000000000000002F
:1031A000000000000000000000000000000000001F
:1031B000000000000000000000000000000000000F
:1031C00000000000000000000000000000000000FF
:1031D00000000000000000000000000000000000EF
:1031E00000000000000000000000000000000000DF
:1031F00000000000000000000000000000000000CF
:1032000000000000000000000000000000000000BE
:1032100000000000000000000000000000000000AE
:10322000000000000000000000000000000000009E
:10323000000000000000000000000000000000008E
:10324000000000000000000000000000000000007E
:10325000000000000000000000000000000000006E
:10326000000000000000000000000000000000005E
:1032700000000000000000000000000000C0E0F0BE
:10328000F8F8FC7C3E3E1E1F1F1F1F1E3E3E7CFCAE
:10329000F8F8F0E0800000000000000000000000EE
:1032A000000000000000000000000000000000001E
:1032B000000000C00000000000008080000000004E
:1032C000000000000000008000000000000000007E
:1032D000000000000000000080E0F0F8F8FC7C3EF8
:1032E0003E1E1F1F1E1E1E3E3E7CFCF8F8F0E080B6
:1032F0000000000000000000000000F8FFFFFFFFDA
:1033000007010000000000000000000000000000B5
:103310000107FFFFFFFFF0000000000000000000B9
:1033200000000060301C0603C0E0380E0700C0E05B
:10333000380E07010000E0701C07030060701C07D6
:1033400003000060380E070130380E030000000053
:10335000000000000000F8FFFFFFFF030100000075
:1033600000000000000000000000000107FFFFFF58
:10337000FFF0000000000000000000010F3F7FFF91
:10338000FCF8F0E0C0C0808080808080C0C0E0F0A9
:10339000F8FEFF7F1F0F000000000000000000008B
:1033A000000000000000000000000000000000001D
:1033B000000000000000000000000000000000000D
:1033C00000000000000000000000000000000000FD
:1033D000000000000000010F3F7FFFFCF8F0E0C09C
:1033E000C0808080808080C0C0E0F0F8FEFF7F3F1A
:1033F0000F010000000000000000000000000000BD
:10340000010303070707070F0F0F0F0F0707070336
:1034100001010000000000000000000000000000AA
:1034200000000000000000007FFC800000000000A1
:103430000000000000E0FFFE80000000000000002F
:1034400000000080FE7E0000000000000000000080
:103450000000000000000000000000010303070757
:1034600007070F0F0F0F07070707030101000000F1
:10347000000000000000000000000000000000004C
:10348000000000000000000000000000000000003C
:10349000000000000000000000000000000000002C
:1034A00000000000000000000001030306060606FD
:1034B00006060606030101010307060606060606C0
:1034C00006060303010000000000000000000000E9
:1034D00000000000000000000000000000000000EC
:1034E00000000000000000000000000000000000DC
:1034F00000000000000000000000000000000000CC
:1035000000000000000000000000000000000000BB
:1035100000000000000000000000000000000000AB
:10352000000000000000000000000000000000009B
:10353000000000000000000000000000000000008B
:10354000000000000000000000000000000000007B
:10355000000000000000000000000000000000006B
:10356000000000000000000000000000000000005B
:10357000000000000000000000000000000000004B
:10358000000000000000000000000000000000003B
:10359000000000000000000000000000000000002B
:1035A000000000000000000000000000000000001B
:1035B000000000000000000000000000000000000B
:1035C00000000000000000000000000000000000FB
:1035D00000000000000000000000000000000000EB
:1035E00000000000000000000000000000000000DB
:1035F0000000000000000000E0E0E0E0C0C0C0808B
:10360000800000000000000000000000000000003A
:1036100000000000000000000000000000000000AA
:10362000000000000000000000000000000000009A
:10363000000000000000000000000000000000008A
:10364000000000000000000000000000000000007A
:10365000000000000000000000000000000000006A
:10366000000000000000008080C0C0C0E0E0F0F07A
:10367000F000000000000000000101030303070741
:10368000070F0F0F1E1E3E3C7C7C78F8F0F0E0E048
:10369000E0E0C0C08080800000000000000000006A
:1036A000000000000000000000000000000000001A
:1036B000000000000000000000000000000000000A
:1036C00000000000000000000000000000000000FA
:1036D0000000008080C0C0C0E0E0E0F0F0F8F8F842
:1036E000BCBC9E9E9F8F8F8FC7C7C3C3C3C1C1C0C1
:1036F000C0C00000000000000000081C1C1C1C1CB6
:103700001C1C1C1C1C1C9C9C9C9CDCDCDCDCFDFD37
:10371000FFFFFFFFFFFF7F7F7F3E3E3E3C1C000020
:10372000000000000000E0E0E000000000000000F9
:1037300000000000000000C0C0C000000000000049
:103740000000000000C0C0C0000000000000000039
:10375000000F0F0F1F1F1F3F3F3F3F7F7F7FFBF378
:10376000F3F3E3E3E3E3C1C1C1818181010101011D
:103770000000000000000000000000001C3C3C1E97
:103780001E1E1F0F0F0F0F870707070303030101FB
:103790000101000000000000000000000000000027
:1037A000000000000000031F7FF8E0C0C0808080A0
:1037B000808080C0E0F0783F7FFFE0800000000064
:1037C0000000000080F3FFFF000000000000000088
:1037D00000000000000000000000000000000000E9
:1037E00000010101030303038787070F0F0F0F0E6B
:1037F0000C000000000000000000F8FC0000C0FE0B
:103800007F02000080F07F0F010000C0F81E04005E
:1038100000000000000000000000000000000000A8
:10382000000000000000000000000003FFFFFF0395
:10383000030303010100000000010307070FFEFE60
:103840003E0607070703010000000000000000001B
:103850000000000000000000000000F07E0C0000EE
:10386000F87F07000000E0FC1F030000C0F03E06E8
:103870000000000000000000000001000000030341
:10388000000000040F070000000006070000000011
:103890000000000000000000000000000000000028
:1038A0000000000000000000000000000003070FFF
:1038B0001E1C1C1C1C1C1C1C1C1C1C1C1E0F0F0377
:1038C00000000000000000000000000000000000F8
:1038D00000000000000000000000000000000000E8
:1038E00003000000000707000000000207010000BD
:1038F00000000000000000000000000000000000C8
:1039000000000000000000000000000000000000B7
:1039100000000000000000000000000000000000A7
:103920000000000000000000000000000000000097
:103930000000000000000000000000000000000087
:103940000000000000000000000000000000000077
:103950000000000000000000000000000000000067
:103960000000000000000000000000000000000057
:10397000000000000000000098390008000000204E
:103980002000000028010008B839000820000020AD
:10399000600600004401000800000000010203046A
:1039A0000102030406070809020406080000C80013
:0839B000060000000000000009
:04000005080000ED02
:00000001FF
